:02000002D0002C
:1040000000400D0014540D00000006000C000501D6
:08401000040134080000000067
:04401800C8510D007E
:10401C0009480A49884208B505D0094A824202D0AB
:10402C00121A01F089F80748074A0021121A01F008
:10403C0091F8014808BD00BFD8E5032084530D005A
:10404C0040E6032040E60320F0E7032070B5074E5E
:10405C00074C00F0E1FCA41BA4080025A54200D1EC
:10406C0070BD56F8043B98470135F7E750530D00E7
:10407C0074530D0000F013B808B500F014F8BDE847
:10408C00084000F08BBC00F041BB00F047BB00784F
:10409C00B0FA80F04009704701230370704701218A
:1040AC00072000F0C7BF08B50121072000F0D3FF9F
:1040BC0040F6B83000F030FC0021072000F0CBFFB8
:1040CC004FF47A7000F028FC0121072000F0C3FFA8
:1040DC004FF47A7000F020FC0021072000F0BBFFA9
:1040EC0040F6B83000F018FC0121072000F0B3FFB7
:1040FC004FF47A7000F010FC0021072000F0ABFFA9
:10410C004FF47A7000F008FC0121072000F0A3FFA7
:10411C004FF47A7000F000FC0021072000F09BFFA8
:10412C0040F6B83000F0F8FB0121072000F093FFB7
:10413C0040F6B83000F0F0FB0021072000F08BFFB8
:10414C004FF47A7000F0E8FB0121072000F083FFA8
:10415C004FF47A7000F0E0FB0021072000F07BFFA9
:10416C004FF47A7000F0D8FB0121072000F073FFA8
:10417C0040F6B83000F0D0FB0021072000F06BFFB8
:10418C004FF47A7000F0C8FB0121072000F063FFA8
:10419C004FF47A7000F0C0FB0021072000F05BFFA9
:1041AC0040F6B83000F0B8FB0121072000F053FFB7
:1041BC004FF47A7000F0B0FB0021072000F04BFFA9
:1041CC004FF47A7000F0A8FB0121072000F043FFA8
:1041DC004FF47A7000F0A0FB0021072000F03BFFA9
:1041EC004FF47A7000F098FB0121072000F033FFA8
:1041FC004FF47A7000F090FB0021072000F02BFFA9
:10420C004FF47A7000F088FB0121072000F023FFA7
:10421C004FF47A7000F080FB0021072000F01BFFA8
:10422C0040F6B83000F078FB0121072000F013FFB6
:10423C0040F6B83000F070FB0021072000F00BFFB7
:10424C004FF47A7000F068FB0121072000F003FFA7
:10425C0040F6B83000F060FB0021072000F0FBFEB8
:10426C004FF47A7000F058FB0121072000F0F3FEA8
:10427C0040F6B83000F050FB0021072000F0EBFEB8
:10428C0040F6B83000F048FB0121072000F0E3FEB7
:10429C004FF47A7000F040FB0021072000F0DBFEA9
:1042AC004FF47A7000F038FB0121072000F0D3FEA8
:1042BC0040F6B83000F030FB0021072000F0CBFEB8
:1042CC004FF47A7000F028FB0121072000F0C3FEA8
:1042DC004FF47A7000F020FB0021072000F0BBFEA9
:1042EC004FF47A7000F018FB0121072000F0B3FEA8
:1042FC004FF47A7000F010FB0021072000F0ABFEA9
:10430C0040F6B83000F008FB0121072000F0A3FEB6
:10431C004FF47A7000F000FB0021072000F09BFEA8
:10432C004FF47A7000F0F8FA0121072000F093FEA8
:10433C0040F6B83000F0F0FA0021072000F08BFEB8
:10434C004FF47A7000F0E8FA0121072000F083FEA8
:10435C004FF47A7000F0E0FA0021072000F07BFEA9
:10436C004FF47A7000F0D8FA0121072000F073FEA8
:10437C004FF47A7000F0D0FA0021072000F06BFEA9
:10438C004FF47A7000F0C8FA0121072000F063FEA8
:10439C004FF47A7000F0C0FA0021072000F05BFEA9
:1043AC0040F6B83000F0B8FA0121072000F053FEB7
:1043BC0042F2107000F0B0FA0720002100F04BFE22
:1043CC00BDE8084040F6B83000F0A6BA0021012044
:1043DC0000F018B908B5024B1B689B68019308BD27
:1043EC006802030008B5024B1B68DB68019308BD2B
:1043FC006802030008B5024B1B689B68019308BD5B
:10440C002C02030008B5024B1B68DB68019308BD46
:10441C002C02030008B5024B1B681B69019308BDF5
:10442C002C02030008B5024B1B685B68019308BDA6
:10443C001802030008B5024B1B685B69019308BDA9
:10444C001802030008B5024B1B685B6C019308BD96
:10445C004802030008B5024B1B689B6C019308BD16
:10446C004802030008B5024B1B685B69019308BD49
:10447C006402030008B5024B1B681B68019308BD5E
:10448C003C02030008B5024B1B68DB68019308BDB6
:10449C003C02030008B5024B1B681B69019308BD65
:1044AC003C02030008B5024B1B685B69019308BD15
:1044BC003C02030008B5024B1B689B69019308BDC5
:1044CC003C02030008B5024B1B68DB69019308BD75
:1044DC003C02030008B5024B1B681B6A019308BD24
:1044EC003C02030008B5024B1B689B6A019308BD94
:1044FC003C02030008B5024B1B681B6A019308BD04
:10450C002802030008B5024B1B685B6A019308BDC7
:10451C002802030008B5024B1B689B6A019308BD77
:10452C002802030008B5024B1B68DB6A019308BD27
:10453C002802030008B5024B1B681B6B019308BDD6
:10454C002802030008B5024B1B685B6B019308BD86
:10455C002802030008B5024B1B681B6C019308BDB5
:10456C002802030008B5024B1B68DB69019308BDE8
:10457C003002030008B5024B1B681B6A019308BD8F
:10458C003002030008B5024B1B681B68019308BD81
:10459C004C02030008B5024B1B681B69019308BD54
:1045AC004C02030008B5024B1B685B69019308BD04
:1045BC004C02030008B5024B1B689B69019308BDB4
:1045CC004C02030008B5024B1B68DB69019308BD64
:1045DC004C02030008B5024B1B681B6A019308BD13
:1045EC004C02030008B5024B1B685B68019308BDC5
:1045FC002002030008B5024B1B685B69019308BDE0
:10460C002002030008B5024B1B68DB6A019308BD4E
:10461C002002030008B5034B1B68D3F888300193C4
:10462C0008BD00002002030008B5034B1B68D3F83B
:10463C009430019308BD00002002030008B5024B22
:10464C001B685B68019308BD4002030008B5024B70
:10465C001B689B68019308BD4002030008B5024B20
:10466C001B68DB68019308BD4002030008B5024BD0
:10467C001B681B69019308BD4002030008B5024B7F
:10468C001B685B69019308BD4002030008B5024B2F
:10469C001B689B69019308BD4002030008B5024BDF
:1046AC001B68DB69019308BD4002030008B5024B8F
:1046BC001B681B6A019308BD4002030008B5024B3E
:1046CC001B681B6B019308BD4002030008B5024B2D
:1046DC001B685B6B019308BD4002030008B5024BDD
:1046EC001B681B6C019308BD4002030008B5024B0C
:1046FC001B685B6C019308BD4002030008B5024BBC
:10470C001B68DB6B019308BD4402030008B5024B28
:10471C001B681B68019308BD1C02030008B5024B03
:10472C001B685B68019308BD1C02030008B5024BB3
:10473C001B685B6C019308BD1C02030000224068DF
:10474C001146FFF7B3BF002240681146FFF7BEBF0A
:10475C0040680022FFF7B2BF4068002281F00101DF
:10476C00FFF79CBF002340681A461946FFF78EBF1F
:10477C00002340681A461946FFF780BF00224068A4
:10478C001146FFF773BF002240681146FFF75EBF6A
:10479C00406800220221FFF761BF002340681A46DF
:1047AC00FFF74CBF024B03225A60024A1A60704753
:1047BC0044E60320E4510D0010B504460846217070
:1047CC00FFF7D0FE00236360204610BD10B50446F1
:1047DC00006818B1FFF7A2FF0023236010BD10B5CD
:1047EC000446FFF7F3FF204610BD000010B5094B3F
:1047FC00094C022200201A60084B2060A080A07196
:10480C00A360FFF7EFFE2046054A0649BDE81040BD
:10481C0000F07ABC58E603204CE603200000FFFFB2
:10482C0040E60320EB470D0010B50446006808B1C4
:10483C00FFF710FE204610BD10B5064C0023204695
:10484C002360FFF7FFFD2046034A0449BDE81040F2
:10485C0000F05ABC5CE6032040E6032035480D000E
:10486C00F8B506460D468F180024BD420CD03368AF
:10487C0015F8011B9B6830469847031E01DB1C444E
:10488C00F3E7002C08BF1C462046F8BD13B50446C0
:10489C00084659B1019100F089FC23680199DB6845
:1048AC000246204602B0BDE81040184702B010BDC9
:1048BC0003689B68184730B58BB000238DF8243003
:1048CC00012A98BF0A2209AC0D46B1FBF2F101FB9B
:1048DC00125303F0FF03092B94BF30333733DBB291
:1048EC00AA4204F8013DEFD92146FFF7CFFF0BB0E8
:1048FC0030BD0000014B024A1A60704760E603208D
:10490C0018520D00024B1A68024B1A60704700BF18
:10491C00D8E5032064E603200021FFF76BBE10B539
:10492C008368044613B1032201469847204610BD04
:10493C0010B50446FFF7F3FF204610BD0348044AA8
:10494C0004490023836000F0DFBB00BF68E603204E
:10495C0040E603203D490D00014B1860704700BF35
:10496C00DCE5032008B50B4B43B100F051F90368AB
:10497C001B699847002801DDAFF30080064B43B15B
:10498C0000F0C4F903681B699847002801DDAFF3F8
:10499C00008008BD000000000000000008B5FFF713
:1049AC00E1FFFFF747FD014B186008BDD4E703207A
:1049BC000248034A0349121A00F0BEBB00F403205C
:1049CC0004F4032080530D0007B5002300931A460E
:1049DC006FF07701FFF728FE03B05DF804FB0000D1
:1049EC0007B543880A2B08D0502B0BD1094B1B68F9
:1049FC004BB103B05DF804EB1847FFF7E5FF03B0CC
:104A0C005DF804FB002300931A466FF07701FFF763
:104A1C000BFEF4E77CE6032038B5124C1248134D1C
:104A2C000021FFF783FE2368AB42114B0CBF012220
:104A3C0000221A7002D0FFF7BBFF2560FFF7F2FCD3
:104A4C00044600F08FFB0B4B13B12046AFF30080F4
:104A5C0000210848FFF752FEBDE838400648002107
:104A6C00FFF7D8BD00F4032065490D001E1C279AE2
:104A7C0078E6032000000000ED490D00704710B5EA
:104A8C001821044600F045FB204610BDF0B5037D0F
:104A9C00062B8DB00E4600F104074FF0000412D027
:104AAC0000F1080515F8011D0A223046FFF703FF37
:104ABC00AF42044419D0002CF4D02E213046FFF71D
:104ACC00F7FE0444EEE72F236A4639460A208DF898
:104ADC000040FFF7C7FC684600F068FB33680246ED
:104AEC00DB68694630469847044620460DB0F0BD59
:104AFC0010B5054B0446112240F8043B002100F090
:104B0C0029FB204610BD00BF40520D000346074A4A
:104B1C0010B543F8042B01F1100251F8044B43F883
:104B2C00044B9142F9D10A781A7010BD40520D0015
:104B3C0010B59DF8084044EA032343EA024242EAD6
:104B4C00016104234160037510BD13B5CB7800934C
:104B5C008B784A780978FFF7EBFF02B010BD4174EF
:104B6C007047704708B50021007CFFF723FD40EA31
:104B7C00E07008BD08B50121007CFFF71BFD40EA81
:104B8C00E07008BD08B5007CFFF70CFD20EAE07072
:104B9C0008BD08B5007CFFF7FDFC20EAE07008BDFD
:104BAC0013B50446007C0191FFF7FCFC0028019929
:104BBC0001DC607C20B1207CFFF704FD20EAE07072
:104BCC0002B010BD007CFFF705BD10B514210446E2
:104BDC0000F09FFA204610BD10B54FF47A730446CE
:104BEC0008460021C4E90113044B236001232074FF
:104BFC0063741146FFF7C6FC204610BD54520D00DD
:104C0C0010B514220446002100F0A4FA204610BD71
:104C1C0010B5104C88B003A8FFF7F2FF2178BFF352
:104C2C005B8F11F0010111D120460191FFF72FFA92
:104C3C00019958B103AA0848FFF7CEFF2046FFF7A9
:104C4C002BFA064A0649044800F05EFA024808B0FE
:104C5C0010BD00BF80E6032084E6032040E603205D
:104C6C006F4B0D0070474174704708B5007CFFF71F
:104C7C0039FC20EAE07008BD08B5007CFFF70AFC9F
:104C8C0020EAE07008BD08B5007CFFF713FC40EA91
:104C9C00E07008BD08B5007CFFF704FC40EAE0704A
:104CAC0008BD007CFFF70EBC37B5457C04462DB122
:104CBC00207C03B0BDE83040FFF7E4BB007C0191E1
:104CCC00FFF710FC00280199F2DC284603B030BD38
:104CDC0010B51421044600F01CFA204610BD00004B
:104CEC0010B54FF0000C0446084611464FF47A728A
:104CFC00C4E901C2044A22600122207462741A467B
:104D0C00FFF7B8FB204610BD84520D0013B50E4CB6
:104D1C002178BFF35B8F11F0010112D12046019174
:104D2C00FFF7B5F9019960B1084A094B0948FFF73B
:104D3C00D7FF2046FFF7B0F9074A0849054800F0AD
:104D4C00E3F9044802B010BD98E603209CE603206A
:104D5C0020E70320A4E7032040E60320714C0D005C
:104D6C007047F8B5064615460C468F18BC4206D05F
:104D7C00336814F8011B9B6830469847F6E72846C1
:104D8C00F8BD007C0022FFF7B5BB007C0021FFF7CB
:104D9C00B9BB007C0021FFF7BDBB007C0021FFF7F5
:104DAC00C1BB007C0021FFF7C5BB10B51421044624
:104DBC0000F0AFF9204610BD10B54FF47A730446DD
:104DCC0008460021C4E90113034B236020741146EB
:104DDC00FFF7C0FB204610BDB4520D000022406806
:104DEC001146FFF743BC002240681146FFF75EBC3A
:104DFC00002240681146FFF769BC40680022FFF7AB
:104E0C005DBC4068002281F00101FFF747BC002324
:104E1C0040681A461946FFF739BC002340681A4609
:104E2C001946FFF72BBC002240681146FFF70EBC59
:104E3C00406800220221FFF711BC002340681A468B
:104E4C00FFF7FCBB024B04225A60024A1A607047FF
:104E5C00B8E70320DC520D00002340681A46FFF728
:104E6C00EDBB406800220221FFF7F8BB002240682E
:104E7C001146FFF7EBBB002240681146FFF7F6BB6B
:104E8C00002340681A461946FFF7F8BB0023406818
:104E9C001A461946FFF7FABB40680021FFF71EBC03
:104EAC0040680021FFF722BC4068002281F001011C
:104EBC00FFF7F4BB40680022FFF700BC00224068FB
:104ECC001146FFF703BC002240681146FFF7EEBB0A
:104EDC002DE9F043002495B016460D460746FFF722
:104EEC0007FE214618220EA8009400F033F9402347
:104EFC00CDE90C3421466B460CAA3046FFF772FA0A
:104F0C000446002846D1024601216868FFF7AEFB33
:104F1C000221804622466868FFF7A8FB009E814666
:104F2C002146002E36D0002934D17368022B03D0D1
:104F3C000A2B0BD0F669F4E7B8F1000F04D07169B5
:104F4C0038460431FFF701FE4146F3E7B9F1000F93
:104F5C0001D14946EEE77469102201A800F0FAF875
:104F6C0006238DF8143001AD04F1080318341868C9
:104F7C0059682A4603C20833A3421546F7D101A942
:104F8C0006A807ADFFF7C2FD0FCD3C1D0FC42B6863
:104F9C002370DEE70098FFF71DFA384615B0BDE820
:104FAC00F0830000024B034A1A6000225A607047DB
:104FBC00C0E7032018530D00232813B502D9002095
:104FCC0002B010BDA0F10B03022B1AD8174C21789C
:104FDC00BFF35B8F11F001010BD120460191FFF75C
:104FEC0056F8019928B11248FFF7E6FB2046FFF767
:104FFC0053F80F4B1878FFF7BDFA0028DFD10120CA
:10500C00DEE7012809D800F057F80021007CFFF7F3
:10501C0099FA80F00100C0B2D2E709380128EED825
:10502C00FFF774FE007CFFF755FAF2E7C8E70320A0
:10503C00CCE70320232838B504460D460AD8FF29AF
:10504C0008D0FFF7B9FF28B129462046BDE8384003
:10505C00FFF7D0B938BD38B504460D46FFF7D2F985
:10506C00FF2810D0062804D84D2323FA00F0C307DC
:10507C0009D42046FFF7A0FF28B129462046BDE8F9
:10508C003840FFF7C7B938BD38B500232025438019
:10509C00142304460380856005610649284600F008
:1050AC003AF804496060284600F035F8E060204684
:1050BC0038BD00BF4C530D0030B50F4D2978BFF3F0
:1050CC005B8F11F0010487B013D12846FEF7DFFF88
:1050DC0078B101A8FFF7D8FF01AA21460748FFF7CE
:1050EC006BFE2846FEF7D8FF054A0649034800F038
:1050FC000BF8024807B030BDD8E70320DCE70320EB
:10510C0040E603206D4D0D000B460146184600F09D
:10511C0005B8FEF7BABFFEF7B6BF000010B5054CD8
:10512C0013462CB10A4601460220AFF3008010BD95
:10513C002046FCE7000000000A44914200F1FF33D6
:10514C0000D1704710B511F8014B03F8014F914293
:10515C00F9D110BD02440346934200D1704703F8C5
:10516C00011BF9E738B50D4B1D68AB6B04467BB9D9
:10517C001820FFF7CBFA0A4A0A4BA863C0E90023B0
:10518C00094B83600B23838101220023C0E9042394
:10519C00AB6B00221C615A6138BD00BFDCE50320FB
:1051AC000E33CDAB34126DE6ECDE0500034613F87E
:1051BC00012B002AFBD1181A013870471D400D0035
:1051CC0059400D0081400D0085400D00000000008D
:1051DC000000000000000000A7470D009D470D00D7
:1051EC0093470D0089470D007D470D0071470D0059
:1051FC00A54E0D00AD4E0D0065470D005D470D0031
:10520C0053470D0049470D00DD4E0D0061707000D5
:10521C0025592D256D2D25645425483A254D3A25C3
:10522C0053257A0061736374696D6500000000009A
:10523C0000000000994A0D00894A0D008B4A0D00B0
:10524C0000000000000000006F4B0D00D74B0D005C
:10525C00AD4B0D006D480D009F4B0D00714B0D00BB
:10526C00814B0D00D14B0D00914B0D006B4B0D0084
:10527C000000000000000000714C0D00DD4C0D0022
:10528C00B54C0D006D480D00854C0D00A14C0D006A
:10529C00934C0D00AF4C0D00734C0D00774C0D0072
:1052AC0000000000000000006D4D0D00B74D0D001A
:1052BC008F4D0D006F4D0D00974D0D009F4D0D0046
:1052CC00A74D0D00AF4D0D000000000000000000C8
:1052DC00474E0D003D4E0D00334E0D00E94D0D00B7
:1052EC00274E0D001B4E0D00A54E0D00AD4E0D00B2
:1052FC000F4E0D00074E0D00FD4D0D00F34D0D0032
:10530C00DD4E0D000000000000000000654E0D0099
:10531C006F4E0D00794E0D00834E0D008D4E0D001D
:10532C00994E0D00A54E0D00AD4E0D00B54E0D0065
:10533C00C14E0D00C94E0D00D34E0D00DD4E0D00BB
:10534C0000000000D9430D00B1470D00F9470D00D6
:10535C0045480D0001490D0011490D0049490D004A
:10536C00514E0D00B14F0D00000000000000000078
:04537C00000000002D
:045380000000000029
:1053840030520D00E0E503200000000000000000A2
:105394000000000000000000000000000000000009
:1053A40000000000000000000000000000000000F9
:1053B40000000000000000000000000000000000E9
:1053C40000000000000000000000000000000000D9
:1053D40000000000000000000000000000000000C9
:0853E4000000000000000000C1
:1053EC00FFFFFFFF00000102030405060708090A7E
:1053FC000B0C0D0E0F101112131415161718191A79
:08540C001B1C1D1E1F202800BF
:045414007856341280
:04000003D000401CCD
:00000001FF
